:100000000C9462000C94120B0C943F0B0C948A001D
:100010000C948A000C948A000C948A000C948A0038
:100020000C948A000C948A000C948A000C948A0028
:100030000C948A000C948A000C948A000C948A0018
:100040000C94CA000C948A000C9423040C944A0566
:100050000C9411050C948A000C948A000C948A006C
:100060000C948A000C948A0001030406000000002E
:100070000000000700020000000000004002040829
:100080001020018001020408102001020408102041
:10009000040202020202040402040404040403032E
:1000A00003030303000000002300260029000000D2
:1000B0000000250028002B0000000000240027007D
:1000C0002A00441B11241FBECFEFD8E0DEBFCDBFF6
:1000D00011E0A0E0B1E0EAE9F3E402C005900D927E
:1000E000AA36B107D9F712E0AAE6B1E001C01D9225
:1000F000AD39B107E1F710E0C4ECD0E004C02297BD
:10010000FE010E94301EC23CD107C9F70E942F1B7E
:100110000C94CB210C94000008952FEF40E060E098
:1001200083E791E00E94C4024AEF50E060E070E093
:1001300083E791E00E94C10320E04FEF60E083E796
:1001400091E00E94C4024AEF50E060E070E083E773
:1001500091E00E94C10320E040E06FEF83E791E06F
:100160000E94C4024AEF50E060E070E083E791E053
:100170000E94C10320E040E060E083E791E00E943C
:10018000C40248EB5BE060E070E083E791E00C9430
:10019000C103FFCF1F920F920FB60F9211242F931E
:1001A0003F938F939F93AF93BF9380916A019091F8
:1001B0006B01A0916C01B0916D013091720126E04C
:1001C000230F2D3720F40296A11DB11D05C029E88B
:1001D000230F0396A11DB11D2093720180936A0124
:1001E00090936B01A0936C01B0936D0180916E01AF
:1001F00090916F01A0917001B09171010196A11DC4
:10020000B11D80936E0190936F01A0937001B09324
:100210007101BF91AF919F918F913F912F910F905D
:100220000FBE0F901F9018952FB7F89460916A0138
:1002300070916B0180916C0190916D012FBF0895B9
:100240003FB7F89480916E0190916F01A091700179
:10025000B091710126B5A89B05C02F3F19F00196FA
:10026000A11DB11D3FBF6627782F892F9A2F620FDE
:10027000711D811D911D43E0660F771F881F991F17
:100280004A95D1F70895CF92DF92EF92FF92CF93E4
:10029000DF936B017C010E942001EB01C114D104AA
:1002A000E104F10479F00E9420016C1B7D0B683E93
:1002B0007340A0F381E0C81AD108E108F108C851E1
:1002C000DC4FECCFDF91CF91FF90EF90DF90CF909C
:1002D00008958130910541F00297009729F0880F29
:1002E000991F01970197F1F70895789484B582607A
:1002F00084BD84B5816084BD85B5826085BD85B5CA
:10030000816085BDEEE6F0E0808181608083E1E878
:10031000F0E01082808182608083808181608083B0
:10032000E0E8F0E0808181608083E1EBF0E08081B3
:1003300084608083E0EBF0E0808181608083EAE785
:10034000F0E080818460808380818260808380810E
:10035000816080838081806880831092C1000895CD
:100360000895CF93DF9300D000D000D0CDB7DEB793
:10037000BE016F5F7F4F89E891E00E944807892B9B
:1003800019F489819A8102C080E090E026960FB628
:10039000F894DEBF0FBECDBFDF91CF910895CF930C
:1003A000DF931F92CDB7DEB71982BE016F5F7F4F1B
:1003B00089E891E00E94780789810F90DF91CF91C1
:1003C0000895CF93DF931F92CDB7DEB71982BE0198
:1003D0006F5F7F4F89E891E00E94A80789810F90A5
:1003E000DF91CF910895CF93DF931F92CDB7DEB702
:1003F0001982BE016F5F7F4F89E891E00E94A807D4
:10040000298130E0A0E1B7E20E94DE1D68517A4008
:100410008D4E9F4F21ED38E140E050E00E940C1ED0
:10042000C9010F90DF91CF910895CF93DF9300D052
:1004300000D000D0CDB7DEB7BE016F5F7F4F89E837
:1004400091E00E944807892B19F48B819C8102C09E
:1004500080E090E026960FB6F894DEBF0FBECDBFC9
:10046000DF91CF910895CF93DF9300D000D000D0DB
:10047000CDB7DEB7BE016F5F7F4F89E891E00E9484
:100480004807892B19F48D819E8102C080E090E09D
:1004900026960FB6F894DEBF0FBECDBFDF91CF9189
:1004A00008950F931F93CF93DF93CDB7DEB72C97AB
:1004B0000FB6F894DEBF0FBECDBF8E01095F1F4F90
:1004C000B80189E891E00E944807892B11F486E081
:1004D00006C086E0F801982F11929A95E9F7F80185
:1004E000DE01119601900D928A95E1F729813A81FA
:1004F0004B815C816D817E8180E090E02C960FB60F
:10050000F894DEBF0FBECDBFDF91CF911F910F9149
:100510000895CF93DF9300D0CDB7DEB719826A83F9
:10052000BE016F5F7F4F89E891E00E9439090F900B
:100530000F90DF91CF910895CF93DF9300D0CDB787
:10054000DEB781E089836A83BE016F5F7F4F89E8F0
:1005500091E00E9439090F900F90DF91CF9108959B
:10056000CF93DF9300D0CDB7DEB782E089836A8373
:10057000BE016F5F7F4F89E891E00E9439090F90BB
:100580000F90DF91CF910895CF93DF9300D01F920A
:10059000CDB7DEB769834A832B83BE016F5F7F4F80
:1005A00089E891E00E9440090F900F900F90DF9131
:1005B000CF910895CF93DF9300D01F92CDB7DEB7D0
:1005C000BE016F5F7F4F89E891E00E941807892B79
:1005D00011F4898101C080E00F900F900F90DF919E
:1005E000CF910895CF93DF9300D01F92CDB7DEB7A0
:1005F000BE016F5F7F4F89E891E00E941807892B49
:1006000011F48A8101C080E00F900F900F90DF916C
:10061000CF910895CF93DF9300D01F92CDB7DEB76F
:10062000BE016F5F7F4F89E891E00E941807892B18
:1006300011F48B8101C080E00F900F900F90DF913B
:10064000CF910895CF93DF9300D01F92CDB7DEB73F
:10065000BE016F5F7F4F89E891E00E941807892BE8
:1006600021F469817A818B8103C060E070E080E0D1
:100670000F900F900F90DF91CF910895CF93DF935C
:10068000CDB7DEB766970FB6F894DEBF0FBECDBF0D
:10069000CA012531A8F46983422F50E0BC01CE0184
:1006A00002962E8B0E9464202E8941E0420FBE01EB
:1006B0006F5F7F4F89E891E00E94320981E001C0BD
:1006C00080E066960FB6F894DEBF0FBECDBFDF9117
:1006D000CF910895CF93DF93CDB7DEB765970FB66F
:1006E000F894DEBF0FBECDBF69832A833B834C8362
:1006F0005D8345E0BE016F5F7F4F89E891E00E9416
:10070000320981E065960FB6F894DEBF0FBECDBF0B
:10071000DF91CF910895CF93DF93EC01642FFC011B
:10072000319684E1DF011D928A95E9F7AE0189E8EF
:1007300091E00E94AB06CE01DF91CF910895CF9357
:10074000DF93C5E7D1E084E1FE0111928A95E9F7D4
:1007500044E751E089E891E00E94AB0620917601E0
:1007600060917701862F90E0A0E0B0E077276627C0
:10077000722B2881622B20917801922BDF91CF91EF
:100780000895CF93DF9389E891E00E94470989E8B3
:1007900091E00E940D04D0917A00DD1FDD27DD1F5E
:1007A00029F080917A008F7780937A00C0B7CC1FB0
:1007B000CC27CC1F19F080B78F7780BF539840E0CB
:1007C00050E060EB71E081E00E94E20A83B7817F34
:1007D000846083BFF8944B9B0DC083B7816083BF57
:1007E00085B7806685BF8F7D85BF7894889583B7F0
:1007F0008E7F83BF789481E00E94020BDD2329F075
:1008000080917A00806880937A00CC2319F080B7B9
:10081000806880BFDF91CF9108952091000122234D
:10082000E1F3FC0111A20895DC01ED91FC91DB01E3
:1008300014964D915C9115976D917C910280F38196
:10084000E02D099408951F920F920FB60F92112474
:100850002F933F934F935F936F937F938F939F93C8
:10086000AF93BF93CF93EF93FF938091C00082FD2E
:100870000BC0C091C600809191029091920220918C
:100880009002009721F40EC08091C600B8C02223C8
:1008900019F030E2C32706C0CD3731F481E08093F0
:1008A0009002ADC021111AC0CE3719F4009749F457
:1008B00015C0CF3721F48530910519F40FC0CD371D
:1008C00069F410928F0210928E0210928D02109293
:1008D0008C0210928B0210928A0235C01092900204
:1008E0008230910599F154F4009721F1019709F0B4
:1008F00086C0C0938D0282E090E07DC08430910577
:1009000009F44EC07CF1059709F079C081E080932D
:100910009302109292021092910210928F02109202
:100920008E0210928D0210928C0210928B02109205
:100930008A0265C0CE3709F062C081E090E09093F2
:100940009202809391021092930259C010928E02EB
:10095000C0938F0280918D02815080938D0283E03D
:1009600090E049C080918E0290918F028C2B9093E1
:100970008F0280938E0220918D02215020938D0250
:10098000892B19F481E492E002C08FEA91E0909300
:100990008B0280938A02222361F184E090E02BC0D5
:1009A00020918A0230918B0221153105F1F0F90175
:1009B000EB5BFF4F80819181019665E470E00E94BE
:1009C000F81DD901A95BBF4F4D915C918417950724
:1009D00039F0A081B181A20FB31FCC9391838083A2
:1009E00080918D02815080938D0280918D028111C2
:1009F00006C085E090E09093920280939102FF916F
:100A0000EF91CF91BF91AF919F918F917F916F9116
:100A10005F914F913F912F910F900FBE0F901F90BC
:100A200018951F920F920FB60F9211242F933F9398
:100A30004F935F936F937F938F939F93AF93BF93E6
:100A4000EF93FF9320913D0230913E0280913F024F
:100A5000909140022817390761F460E08DE00E9410
:100A6000830A8091C1008F7B8093C10081E08093D5
:100A70000001FF91EF91BF91AF919F918F917F9175
:100A80006F915F914F913F912F910F900FBE0F90FB
:100A90001F9018951F920F920FB60F9211242F934B
:100AA0003F935F936F937F938F939F93AF93BF9386
:100AB000EF93FF9320913D0230913E0280913F02DF
:100AC000909140022817390759F48091C1008F7D19
:100AD0008093C1008091C10080648093C10016C0E2
:100AE000E0913F02F0914002E850FE4F208180915A
:100AF0003F0290914002019665E470E00E94F81D6B
:100B00009093400280933F022093C600FF91EF91A3
:100B1000BF91AF919F918F917F916F915F913F9125
:100B20002F910F900FBE0F901F901895CF93DF93CA
:100B3000CDB7DEB7C354D1090FB6F894DEBF0FBEF0
:100B4000CDBF8C0140E050E0BA010E945611D8019F
:100B50009496ED91FC919597108280818823E9F31A
:100B600043E450E0BE016F5F7F4FC8010E94EC126A
:100B7000D801ED91FC910280F381E02DAC01BE0122
:100B80006F5F7F4FC8010995E2CF40E051EE60E012
:100B900070E00E946C0B61E08DE00E944A0A209197
:100BA0003D0230913E0280913F0290914002281711
:100BB000390739F481E08093000160E08DE00C9406
:100BC000830A0895CF92DF92EF92FF920F931F93C3
:100BD000CF93DF93EC01D62EC72E7A018901213401
:100BE0003105E8F51092000161E08DE00E94830A72
:100BF00020913D0230913E0280913F02909140024F
:100C00002817390731F467E070E080E090E00E9437
:100C100043016EE7CE010E941E0D62E0600FCE011F
:100C20000E94941B6C2DCE010E94941B6D2DCE0151
:100C30000E94941BD12C8D2D90E08017910748F4D1
:100C4000F701E80FF91F6081CE010E94941BD39435
:100C5000F2CF6FE7CE010E941E0DC80102C08FEFD8
:100C60009FEFDF91CF911F910F91FF90EF90DF9059
:100C7000CF9008954F925F926F927F92AF92BF9202
:100C8000CF92DF92EF92FF920F931F93CF93DF9358
:100C9000EC01F8948AA19BA1FC01E95BFF4F118252
:100CA0001082FC01EB5BFF4F11821082ECA1FDA1D1
:100CB00010827894CE010E94E2050E941401688798
:100CC00079878A879B87ECA1FDA1808181110FC064
:100CD0000E941401488459846A847B8464197509CC
:100CE000860997096A157B058C059D0560F3ECA1C3
:100CF000FDA180818823F1F06AA17BA1FB01EB5B60
:100D0000FF4F80819181D7014D915C9184179507A8
:100D100010F440815181C8010E946420EAA1FBA126
:100D2000EB5BFF4F80819181F7019183808380E0AD
:100D300090E002C08FEF9FEFDF91CF911F910F9155
:100D4000FF90EF90DF90CF90BF90AF907F906F902B
:100D50005F904F9008958F929F92AF92BF92CF92E3
:100D6000DF92EF92FF920F931F93CF93DF9300D008
:100D70001F92CDB7DEB74A0125E130E03A832983DF
:100D80006B8344E6A42EB12CC12CD12C9E012F5F85
:100D90003F4F7901840121E030E0AE014D5F5F4FAC
:100DA00065E175E00E943A0629812150F401208313
:100DB0000F900F900F90DF91CF911F910F91FF90A7
:100DC000EF90DF90CF90BF90AF909F908F9008955D
:100DD000AF92BF92CF92DF92EF92FF920F931F9349
:100DE000CF93DF9300D0CDB7DEB72AE130E03A836E
:100DF000298354E6A52EB12CC12CD12C9E012F5F46
:100E00003F4F79018B0120E030E040E050E060E1AD
:100E100075E00E943A060F900F90DF91CF911F91DD
:100E20000F91FF90EF90DF90CF90BF90AF9008951B
:100E3000AF92BF92CF92DF92EF92FF920F931F93E8
:100E4000CF93DF9300D0CDB7DEB723E030E03A8315
:100E50002983E4E6AE2EB12CC12CD12C9E012F5F4C
:100E60003F4F79018B0120E030E040E050E062E04C
:100E700070E20E943A060F900F90DF91CF911F9180
:100E80000F91FF90EF90DF90CF90BF90AF900895BB
:100E9000AF92BF92CF92DF92EF92FF920F931F9388
:100EA000CF93DF9300D0CDB7DEB726E030E03A83B2
:100EB0002983F4E6AF2EB12CC12CD12C9E012F5FDB
:100EC0003F4F79018B0120E030E040E050E060E1ED
:100ED00070E20E943A060F900F90DF91CF911F9120
:100EE0000F91FF90EF90DF90CF90BF90AF9008955B
:100EF000AF92BF92CF92DF92EF92FF920F931F9328
:100F0000CF93DF9300D0CDB7DEB721E030E03A8356
:100F10002983A4E6AA2EB12CC12CD12C9E012F5FCF
:100F20003F4F79018B0120E030E040E050E061E18B
:100F300070E20E943A060F900F90DF91CF911F91BF
:100F40000F91FF90EF90DF90CF90BF90AF900895FA
:100F5000AF92BF92CF92DF92EF92FF920F931F93C7
:100F6000CF93DF9300D0CDB7DEB721E030E03A83F6
:100F70002983B4E6AB2EB12CC12CD12C9E012F5F5E
:100F80003F4F79018B0120E030E040E050E065E127
:100F900070E20E943A060F900F90DF91CF911F915F
:100FA0000F91FF90EF90DF90CF90BF90AF9008959A
:100FB0002F923F924F925F926F927F928F929F9269
:100FC000AF92BF92CF92DF92EF92FF920F931F9357
:100FD000CF93DF9300D0CDB7DEB71B014A014DB6EA
:100FE0005EB62DB73EB7241B350B0FB6F8943EBF47
:100FF0000FBE2DBF2F5F3F4F39015A83498314E63F
:10100000A12EB12CC12CD12C9E012F5F3F4F790115
:1010100083019A01AB0160E07EEF0E943A06892BC2
:1010200071F4F101D301820C931CE815F90529F044
:1010300091918D919817C9F302C081E001C080E0C1
:101040000FB6F8945EBE0FBE4DBE0F900F90DF91AD
:10105000CF911F910F91FF90EF90DF90CF90BF90B5
:10106000AF909F908F907F906F905F904F903F9048
:101070002F9008952F923F924F925F926F927F929E
:101080008F929F92AF92BF92CF92DF92EF92FF9298
:101090000F931F93CF93DF9300D0CDB7DEB71B0123
:1010A0004A014DB65EB62DB73EB7241B350B0FB6C1
:1010B000F8943EBF0FBE2DBF2F5F3F4F39015A83BB
:1010C00049830AEFA02EB12CC12CD12C9E012F5F99
:1010D0003F4F790183019A01AB0162E07EEF0E94EC
:1010E0003A06892B71F4F101D301820C931CE815A7
:1010F000F90529F091918D919817C9F302C081E00B
:1011000001C080E00FB6F8945EBE0FBE4DBE0F90DA
:101110000F90DF91CF911F910F91FF90EF90DF9093
:10112000CF90BF90AF909F908F907F906F905F9087
:101130004F903F902F900895AF92BF92CF92DF9241
:10114000EF92FF920F931F93CF93DF9300D0CDB711
:10115000DEB724E6A22EB12CC12CD12C9E012F5F2C
:101160003F4F79018B0120E030E040E050E061E04A
:101170007EEF0E943A060F900F90DF91CF911F9162
:101180000F91FF90EF90DF90CF90BF90AF900895B8
:10119000CF93DF931F92CDB7DEB7698321E030E0B4
:1011A000AE014F5F5F4F62E175E00E94E2050F9074
:1011B000DF91CF910895AB016115710511F44CE5F4
:1011C00051E0FA0101900020E9F79F01241B350B43
:1011D00064E075E00C94E205CF93DF9300D0CDB7C7
:1011E000DEB77A83698322E030E0AE014F5F5F4F64
:1011F00066E075E00E94E2050F900F90DF91CF91BD
:101200000895CF93DF9300D0CDB7DEB77A8369839B
:1012100022E030E0AE014F5F5F4F60E075E00E947A
:10122000E2050F900F90DF91CF910895CF93DF9358
:1012300000D0CDB7DEB77A83698322E030E0AE011B
:101240004F5F5F4F62E075E00E94E2050F900F90E4
:10125000DF91CF910895AB0122E030E068E075E0C6
:101260000C94E205242F30E0AB0164E175E00C94AE
:10127000E205AB0122E030E060E070E20C94E205B0
:10128000AB0123E030E061E070E20C94E205CF9323
:10129000DF9300D000D0CDB7DEB749835A836B838C
:1012A0007C8324E030E0AE014F5F5F4F60E070E38D
:1012B0000E94E2050F900F900F900F90DF91CF9159
:1012C00008959A01AB0163E07EEF0C94E205CF93A1
:1012D000DF931F92CDB7DEB7698321E030E0AE0126
:1012E0004F5F5F4F60E070E00E94E20581E090E0B8
:1012F0000F90DF91CF910895CF92DF92EF92FF92FE
:101300000F931F93CF93DF936C017B01EA0161156B
:10131000710589F1209779F141345105F0F040E0F1
:1013200050E00FE310E09801241B350B4E0D5F1DBC
:1013300060E070E0C6010E94E2050C171D07F1F0A5
:101340009801205C3F4FC217D30708F49E01C217D3
:10135000D307B0F0A8018901E6CF9A01AB0160E0A4
:1013600070E0DF91CF911F910F91FF90EF90DF9090
:10137000CF900C94E20580E090E003C0C80101C06A
:10138000CE01DF91CF911F910F91FF90EF90DF90F1
:10139000CF900895CF92DF92EF92FF920F931F9319
:1013A000CF93DF93CDB7DEB7C054D1090FB6F89411
:1013B000DEBF0FBECDBF6C016115710581F17B01F0
:1013C00000E010E0F701849198018823F1F02F5F8D
:1013D0003F4FE1E0F0E0EC0FFD1FE00FF11F8083D5
:1013E0002034310529F08FEFE81AF80A8901EACF95
:1013F00020E430E0AE014F5F5F4F60E070E0C60177
:101400000E94E20520E030E0EECFAE014F5F5F4F7B
:1014100060E070E0C6010E94E205C80102C080E001
:1014200090E0C05CDF4F0FB6F894DEBF0FBECDBFBB
:10143000DF91CF911F910F91FF90EF90DF90CF90B0
:101440000895833081F028F4813099F08230A1F042
:1014500008958630A9F08730B9F08430D1F48091B6
:1014600080008F7D03C0809180008F778093800003
:10147000089584B58F7702C084B58F7D84BD0895AB
:101480008091B0008F7703C08091B0008F7D8093F2
:10149000B0000895CF93DF9390E0FC01E458FF4F34
:1014A0002491FC01E057FF4F8491882349F190E09B
:1014B000880F991FFC01E854FF4FA591B491825504
:1014C0009F4FFC01C591D4919FB7611108C0F8945A
:1014D0008C91209582238C93888182230AC062306C
:1014E00051F4F8948C91322F309583238C9388811A
:1014F000822B888304C0F8948C91822B8C939FBF9D
:10150000DF91CF9108950F931F93CF93DF931F9295
:10151000CDB7DEB7282F30E0F901E859FF4F8491AD
:10152000F901E458FF4F1491F901E057FF4F04917E
:101530000023C9F0882321F069830E94210A698170
:10154000E02FF0E0EE0FFF1FE255FF4FA591B491A1
:101550009FB7F8948C91611103C01095812301C04D
:10156000812B8C939FBF0F90DF91CF911F910F9193
:101570000895CF93DF93282F30E0F901E859FF4F0A
:101580008491F901E458FF4FD491F901E057FF4FDE
:10159000C491CC2391F081110E94210AEC2FF0E03C
:1015A000EE0FFF1FEC55FF4FA591B4912C912D2309
:1015B00081E090E021F480E002C080E090E0DF91E3
:1015C000CF9108958230E8F4E82FF0E0EE0FFF1F8E
:1015D000EC56FD4F71836083813041F0809169004A
:1015E0008C7F842B80936900E89A0895809169002C
:1015F000440F551F440F551F837F842B8093690030
:10160000E99A0895823068F4813011F0E89801C0B9
:10161000E998E82FF0E0EE0FFF1FEC56FD4F118226
:10162000108208951F920F920FB60F9211242F93DC
:101630003F934F935F936F937F938F939F93AF935A
:10164000BF93EF93FF938091940290919502892B21
:1016500029F0E0919402F09195020995FF91EF91A4
:10166000BF91AF919F918F917F916F915F914F91BA
:101670003F912F910F900FBE0F901F9018951F92C2
:101680000F920FB60F9211242F933F934F935F93B6
:101690006F937F938F939F93AF93BF93EF93FF933A
:1016A0008091960290919702892B29F0E091960201
:1016B000F09197020995FF91EF91BF91AF919F91A2
:1016C0008F917F916F915F914F913F912F910F90EB
:1016D0000FBE0F901F901895CF92DF92EF92FF925E
:1016E000CF93DF93EC016A017B01EC89FD8981E0F6
:1016F00090E008A002C0880F991F0A94E2F7808347
:1017000060E874E88EE190E0A70196010E940C1E4B
:10171000215031094109510956954795379527952B
:10172000211580E1380798F0EC89FD89108260E48A
:1017300072E48FE090E0A70196010E940C1E2150F8
:101740003109410951095695479537952795E889FB
:10175000F9893083EA89FB89208319A2EE89FF8900
:10176000408181E090E09C010C8C02C0220F331F6D
:101770000A94E2F7422B4083EE89FF8940819C0165
:101780000D8C02C0220F331F0A94E2F7422B4083D4
:10179000EE89FF8940819C010E8C02C0220F331F0D
:1017A0000A94E2F7422B4083EE89FF8920810F8C57
:1017B00002C0880F991F0A94E2F7809582238083E4
:1017C000DF91CF91FF90EF90DF90CF900895BF927F
:1017D000CF92DF92EF92FF92CF93DF93EC016A01F9
:1017E0007B01B22EEC89FD8981E090E008A002C067
:1017F000880F991F0A94E2F7808360E874E88EE10D
:1018000090E0A70196010E940C1E21503109410968
:1018100051095695479537952795211580E1380749
:1018200098F0EC89FD89108260E472E48FE090E02A
:10183000A70196010E940C1E21503109410951094E
:101840005695479537952795E889F9893083EA8930
:10185000FB892083E88DF98DB082EE89FF89408174
:1018600081E090E09C010C8C02C0220F331F0A948F
:10187000E2F7422B4083EE89FF8940819C010D8C69
:1018800002C0220F331F0A94E2F7422B4083EE89F5
:10189000FF8940819C010E8C02C0220F331F0A94E5
:1018A000E2F7422B4083EE89FF8920810F8C02C032
:1018B000880F991F0A94E2F7809582238083DF9135
:1018C000CF91FF90EF90DF90CF90BF900895CF938E
:1018D000DF93FC0186859785DC01AB5BBF4FEC0194
:1018E000C95BDF4F4D915C91119728813981421777
:1018F0005307C1F7A689B7894C9181E090E09C011C
:10190000048C02C0220F331F0A94E2F7209524238F
:101910002C93A689B7894C919C01058C02C0220F9B
:10192000331F0A94E2F7209524232C93A689B789C4
:101930004C919C01068C02C0220F331F0A94E2F7DF
:10194000209524232C93A689B7892C91078C02C05B
:10195000880F991F0A94E2F7809582238C938485DF
:101960009585FC01E95BFF4F20813181FC01EB5B38
:10197000FF4F31832083DF91CF910895FC012485AF
:101980003585F901EB5BFF4F80819181F901E95BBE
:10199000FF4F208131818B5B9F4F821B930B65E44E
:1019A00070E00E94F81D0895FC0184859585FC0176
:1019B000EB5BFF4F40815181FC01E95BFF4F2081D0
:1019C00031814217530741F00190F081E02DE80F7B
:1019D000F91F808190E008958FEF9FEF0895FC013B
:1019E00084859585FC01EB5BFF4F40815181FC01B3
:1019F000E95BFF4F208131814217530789F0A081B5
:101A0000B181A80FB91F2C9180819181019665E465
:101A100070E00E94F81D91838083822F90E00895EA
:101A20008FEF9FEF0895FC0181A1882329F0A489FD
:101A3000B5898C9186FFFBCF11A208951F93CF9398
:101A4000DF93FC01162F26853785E901CB5BDF4F3D
:101A500088819981019665E470E00E94F81DD901A2
:101A6000A95BBF4F4D915C91119784179507D1F3F6
:101A7000A881B981A20FB31F1C93A685B785AB5B64
:101A8000BF4F11969C938E93A689B7892C9181E0C4
:101A900090E0078C02C0880F991F0A94E2F7282B68
:101AA0002C9381E081A30488F589E02D80818064F6
:101AB000808381E090E0DF91CF911F910895089598
:101AC0008F929F92AF92BF92CF92DF92EF92FF924E
:101AD0000F931F93CF93DF93CDB7DEB7FC01138233
:101AE000128288EE93E0A0E0B0E084839583A68321
:101AF000B78389E391E091838083758764875787F3
:101B00004687318B208B138B028BF58AE48AD78A28
:101B1000C68AB18EA08E938E828E8F85848F88899F
:101B2000858F8989868F8A89878F8B8980A3DF91AA
:101B3000CF911F910F91FF90EF90DF90CF90BF90CA
:101B4000AF909F908F90089581E00895CF92DF929B
:101B5000EF92FF920F931F93CF93DF936C017A0163
:101B6000EB01E60EF71E00E010E0CE15DF0561F098
:101B70006991D601ED91FC910190F081E02DC601B3
:101B80000995080F191FF1CFC801DF91CF911F915F
:101B90000F91FF90EF90DF90CF900895EF92FF921A
:101BA0000F931F93CF93DF938C01FB01C0E0D0E034
:101BB00064917F018FEFE81AF80A662361F0D8017B
:101BC000ED91FC910190F081E02DC8010995C80FBD
:101BD000D91FF701EDCFCE01DF91CF911F910F916A
:101BE000FF90EF900895AF92BF92CF92DF92EF9265
:101BF000FF920F931F93CF93DF937C016B01C0E0A3
:101C0000D0E000E010E0D60114968D919C911597DC
:101C1000C817D90788F4D701ED91FC91A080B18055
:101C2000BE01C6010E943C18682FC701F501099545
:101C3000080F191F2196E7CFC801DF91CF911F919F
:101C40000F91FF90EF90DF90CF90BF90AF900895ED
:101C50000C94A91BDC01ED91FC910190F081E02D29
:101C60000994DB01ED91FC9111970190F081E02D39
:101C7000BC01CD0109940F931F93CF93DF93EC0127
:101C80006DE00E942A0E8C016AE0CE010E942A0EAD
:101C9000800F911FDF91CF911F910F9108950F93A6
:101CA0001F93CF93DF93EC01E881F9810480F581E4
:101CB000E02D09958C01CE010E943B0E800F911FF3
:101CC000DF91CF911F910F9108950F931F93CF93A1
:101CD000DF93EC01E881F9810680F781E02D099519
:101CE0008C01CE010E943B0E800F911FDF91CF919E
:101CF0001F910F9108950F931F93CF93DF93EC01E2
:101D00000E94A91B8C01CE010E943B0E800F911FE7
:101D1000DF91CF911F910F9108950F931F93CF9350
:101D2000DF93EC010E942A0E8C01CE010E943B0E33
:101D3000800F911FDF91CF911F910F9108950F9305
:101D40001F93CF93DF93EC010E94310E8C01CE01E3
:101D50000E943B0E800F911FDF91CF911F910F9139
:101D600008958F929F92AF92BF92CF92DF92EF929F
:101D7000FF920F931F93CF93DF93CDB7DEB7A19759
:101D80000FB6F894DEBF0FBECDBF7C01C42EE52F89
:101D9000CB01D22E19A221E02D1510F02AE0D22E6F
:101DA0008E010F5D1F4F8D2C912CA12CB12C6C2D11
:101DB0007E2FA50194010E940C1E8C2DD29E8019AD
:101DC0001124015011098A3014F4805D01C0895C2E
:101DD000F8018083211531054105510521F0C22EFE
:101DE000E32FCA01E4CFB801C7010E94A91BA19645
:101DF0000FB6F894DEBF0FBECDBFDF91CF911F911C
:101E00000F91FF90EF90DF90CF90BF90AF909F9099
:101E10008F900895CF92DF92EF92FF920F931F93CE
:101E2000CF93DF93EC016A017B012115310579F431
:101E3000E881F9810190F081E02D642FDF91CF914D
:101E40001F910F91FF90EF90DF90CF9009942A306F
:101E50003105E9F477FF1AC06DE20E942A0E8C0169
:101E600044275527BA014C195D096E097F092AE0FC
:101E7000CE010E94B10E800F911FDF91CF911F9173
:101E80000F91FF90EF90DF90CF9008952AE0B70177
:101E9000A601CE01DF91CF911F910F91FF90EF909E
:101EA000DF90CF900C94B10E9A01AB01662757FDDD
:101EB0006095762F0C940A0F0F931F93CF93DF93A7
:101EC000EC019A01AB01662757FD6095762F0E94C1
:101ED0000A0F8C01CE010E943B0E800F911FDF91F3
:101EE000CF911F910F9108950F931F93CF93DF937D
:101EF000EC010E940A0F8C01CE010E943B0E800F64
:101F0000911FDF91CF911F910F91089521153105F8
:101F100041F4DC01ED91FC910190F081E02D642F02
:101F200009940C94B10E9A01462F50E060E070E0E5
:101F30000C94860F0F931F93CF93DF93EC019A01BC
:101F4000462F50E060E070E00E94860F8C01CE01C9
:101F50000E943B0E800F911FDF91CF911F910F9137
:101F600008959A01AB0160E070E00C94860F0F9326
:101F70001F93CF93DF93EC019A01AB0160E070E017
:101F80000E94860F8C01CE010E943B0E800F911F94
:101F9000DF91CF911F910F9108950F931F93CF93CE
:101FA000DF93EC010E94860F8C01CE010E943B0E54
:101FB000800F911FDF91CF911F910F9108954F9244
:101FC0005F926F927F928F929F92AF92BF92CF92C9
:101FD000DF92EF92FF920F931F93CF93DF93EC0169
:101FE0006A017B01B22E9A01AB01C701B6010E94C2
:101FF000DA1D882319F06FE471E027C0260137014C
:10200000E89477F82FEF3FEF4FE75FE7C301B201A6
:102010000E94DA1D81110DC02FEF3FEF4FE75FE700
:10202000C301B2010E94241C18161CF463E571E080
:102030000CC02FEF3FEF4FE75FE4C701B6010E94EE
:10204000731D1816ACF467E571E0CE01DF91CF91F6
:102050001F910F91FF90EF90DF90CF90BF90AF90C6
:102060009F908F907F906F905F904F900C94A91BE2
:102070002FEF3FEF4FE75FECC701B6010E94241C32
:1020800087FDE1CF20E030E0A901C701B6010E9441
:10209000241C87FF0AC06DE2CE010E942A0E8C012B
:1020A000F7FAF094F7F8F09402C000E010E0A12CE9
:1020B00060E070E080E09FE3AB1441F020E030E0AE
:1020C00040E251E40E94281CA394F6CF9B01AC018E
:1020D000C701B6010E94C01B6B017C010E94951CC8
:1020E0002B013C010E94C11C9B01AC01C701B60140
:1020F0000E94BF1B6B017C012AE0B301A201CE014B
:102100000E94B10E080F191FBB2039F06BE571E07A
:10211000CE010E94A91B080F191F7B2C772041F1CB
:1021200020E030E040E251E4C701B6010E94771D93
:102130006B017C010E94901C4B01AA2497FCA09487
:10214000BA2C2AE030E0B501A401CE010E940A0FAA
:10215000080F191FC501B4010E94C31C9B01AC01EB
:10216000C701B6010E94BF1B6B017C017A94D6CFD8
:10217000C801DF91CF911F910F91FF90EF90DF90F9
:10218000CF90BF90AF909F908F907F906F905F9017
:102190004F9008950C94DF0F0F931F93CF93DF930D
:1021A000EC010E94DF0F8C01CE010E943B0E800FDC
:1021B000911FDF91CF911F910F9108950F931F935E
:1021C000CF93DF93EC010E941401688779878A8797
:1021D0009B87E881F9810284F385E02DCE01099582
:1021E00097FF15C00E941401088519852A853B8533
:1021F000601B710B820B930B0C811D812E813F8123
:10220000601771078207930720F38FEF9FEFDF912D
:10221000CF911F910F9108950F931F93CF93DF9349
:10222000EC010E941401688779878A879B87E8817F
:10223000F9810484F585E02DCE01099597FF15C03D
:102240000E941401088519852A853B85601B710B46
:10225000820B930B0C811D812E813F8160177107CA
:102260008207930720F38FEF9FEFDF91CF911F91AC
:102270000F910895CF93DF93EC01CE010E940C11D2
:1022800097FD11C08D32910571F09C0120533109E9
:102290002A30310540F0E881F9810284F385E02D90
:1022A000CE010995EACFDF91CF910895FC014483D7
:1022B00055836683778308956F927F928F929F9262
:1022C000AF92BF92CF92DF92EF92FF920F931F9344
:1022D000CF93DF935C016B014A013901FB018081DF
:1022E0008823E9F1E12CF12CC0E0D0E0C5010E9487
:1022F000DE10181619068CF5F601EC0FFD1F208173
:10230000332727FD30958217930711F0C0E0D0E006
:10231000F601EC0FFD1F2081332727FD3095821732
:10232000930721F42196C815D905C8F401151105A4
:1023300089F0F301EE0DFF1D2081332727FD309535
:102340008217930739F4FFEFEF1AFF0AE016F10640
:1023500068F203C0E12CF12CC9CF80E001C081E01C
:10236000DF91CF911F910F91FF90EF90DF90CF9071
:10237000BF90AF909F908F907F906F9008950F9334
:102380001F9300E010E020E030E00E945C111F91FC
:102390000F9108950F931F939A01FA010190002065
:1023A000E9F78F0101501109041B150BFB01019086
:1023B0000020E9F7AF0141505109461B570B0E941D
:1023C0005C111F910F91089540E050E00C94CA11E8
:1023D000CF92DF92FF920F931F93CF93DF9300D0A2
:1023E00000D0CDB7DEB76C01062F0E943A11FC0178
:1023F00097FD4BC020E030E0A901F12C112707FD2B
:102400001095E017F107E9F0ED32F105C1F0CF01C9
:10241000C0970A97B0F4AAE0B0E00E94ED1D9B01BE
:10242000AC01CF01AA2797FDA095BA2F280F391F1D
:102430004A1F5B1F205331094109510902C0FF2483
:10244000F394D601ED91FC910284F385E02DC60151
:1024500029833A834B835C830995C6010E940C1142
:10246000FC01C09729813A814B815C810A9748F22F
:10247000E017F10731F2FF2061F066277727CB01E3
:10248000621B730B840B950B06C060E070E0CB0100
:1024900002C0CA01B9010F900F900F900F90DF9109
:1024A000CF911F910F91FF90DF90CF90089561E041
:1024B0000C94E8117F928F929F92AF92BF92CF922D
:1024C000DF92EF92FF920F931F93CF93DF93EC0174
:1024D000762E0E943A11E82F87FD6AC0812C912C3C
:1024E00080E8A82E8FE3B82EC12CD12C760110E005
:1024F00000E0E71579F1ED3251F1EE3251F180ED66
:102500008E0F8A3038F5AAE0B0E0A70196010E944C
:10251000ED1D6B017C014E2F552747FD5095652F12
:10252000752FC40ED51EE61EF71E80E3C81AD1080B
:10253000E108F108112371F02DEC3CEC4CEC5DE36B
:10254000C501B4010E94771D4B015C0102C001E08E
:1025500001C011E0E881F9810284F385E02DCE010C
:102560000995CE010E940C11E82F90ED980F9A303A
:1025700008F4BFCF8E3209F4BCCF871509F4B9CF68
:10258000002341F0F094E094D094C094C11CD11C7D
:10259000E11CF11CC701B601112339F00E94C31CD4
:1025A000A50194010E94771D06C00E94C31C03C0B0
:1025B00060E070E0CB01DF91CF911F910F91FF9010
:1025C000EF90DF90CF90BF90AF909F908F907F90D3
:1025D000089561E00C945A12CF92DF92EF92FF922D
:1025E0000F931F93CF93DF937C016A01EB0100E00F
:1025F00010E00C151D0549F0C7010E94DE1097FD83
:1026000004C089930F5F1F4FF4CFC801DF91CF91B2
:102610001F910F91FF90EF90DF90CF900895AF92B0
:10262000BF92CF92DF92EF92FF920F931F93CF93BF
:10263000DF936C01790121153105B9F08A01C0E001
:10264000D0E0A62EBB24A7FCB094C6010E94DE10E9
:1026500097FD0EC08A159B0559F0F80181938F01F3
:102660002196CE15DF0589F703C080E090E001C018
:10267000CE01DF91CF911F910F91FF90EF90DF90EE
:10268000CF90BF90AF9008950F931F93CF93DF9398
:10269000EC018B016CE571E00E94F413C8010E940B
:1026A000DE1097FD05C0682FCE010E948415F6CF7D
:1026B000CE01DF91CF911F910F910895EF92FF927C
:1026C0000F931F93CF93DF93EC018B01E42E6CE506
:1026D00071E00E94F413C8010E94DE10FF24E7FCA1
:1026E000F09497FD0BC08E159F0541F0682FCE0129
:1026F0000E948415C8010E94DE10F3CFCE01DF9145
:10270000CF911F910F91FF90EF900895FC01808170
:1027100091810C94CC1ECF93DF93EC018881998139
:10272000009711F00E94CC1E198218821D821C8213
:102730001B821A82DF91CF9108950F931F93CF933D
:10274000DF93EC018B016F5F7F4F888199810E943D
:102750005B1F009731F0998388831B830A8381E094
:1027600001C080E0DF91CF911F910F910895CF9329
:10277000DF93EC0188819981892B29F08A819B81E3
:102780008617970760F4CE010E949D13882341F0BD
:102790008C819D81892B19F4E881F981108281E077
:1027A000DF91CF910895EF92FF920F931F93CF93F4
:1027B000DF93EC017B018A01BA010E94B7138111FA
:1027C00004C0CE010E948B1307C01D830C83B70188
:1027D000888199810E949320CE01DF91CF911F9132
:1027E0000F91FF90EF900895FC01118210821382E7
:1027F00012821582148216826115710559F0FB014F
:1028000001900020E9F7AF0141505109461B570BD9
:102810000C94D3130895CF93DF93EC01FB0186173B
:10282000970761F0608171816115710529F044811C
:1028300055810E94D31302C00E948B13CE01DF91F9
:10284000CF910895FC0111821082138212821582A9
:10285000148216820C940B14CF93DF93EC01611554
:10286000710561F0FB0101900020E9F7AF014150D3
:102870005109461B570B0E94D31302C00E948B13B1
:10288000CE01DF91CF910895CF93DF9300D0CDB7E4
:10289000DEB7FC011182108213821282158214822B
:1028A000168269831A82BE016F5F7F4F0E942C14CB
:1028B0000F900F90DF91CF9108950F931F93CF93B7
:1028C000DF93CDB7DEB729970FB6F894DEBF0FBE02
:1028D000CDBF8C01862FF8011182108213821282E3
:1028E00015821482168250E0BE016F5F7F4F90E028
:1028F0000E946B21BE016F5F7F4FC8010E942C14A4
:1029000029960FB6F894DEBF0FBECDBFDF91CF91F1
:102910001F910F9108950F931F93CF93DF93CDB71E
:10292000DEB762970FB6F894DEBF0FBECDBF8C0145
:10293000CB01F80111821082138212821582148257
:10294000168250E0BE016F5F7F4F0E94DC20BE0107
:102950006F5F7F4FC8010E942C1462960FB6F894E7
:10296000DEBF0FBECDBFDF91CF911F910F910895B4
:102970000F931F93CF93DF93CDB7DEB761970FB659
:10298000F894DEBF0FBECDBF8C01CB01F8011182E0
:1029900010821382128215821482168250E0BE01C8
:1029A0006F5F7F4F0E946B21BE016F5F7F4FC80139
:1029B0000E942C1461960FB6F894DEBF0FBECDBFF7
:1029C000DF91CF911F910F9108950F931F93CF9394
:1029D000DF93CDB7DEB7A2970FB6F894DEBF0FBE78
:1029E000CDBF8C01CB01BA01F80111821082138294
:1029F000128215821482168230E0AE014F5F5F4F63
:102A00000E94FD20BE016F5F7F4FC8010E942C1401
:102A1000A2960FB6F894DEBF0FBECDBFDF91CF9167
:102A20001F910F9108950F931F93CF93DF93CDB70D
:102A3000DEB7A1970FB6F894DEBF0FBECDBF8C01F5
:102A4000CB01BA01F8011182108213821282158221
:102A50001482168230E0AE014F5F5F4F0E94462124
:102A6000BE016F5F7F4FC8010E942C14A1960FB664
:102A7000F894DEBF0FBECDBFDF91CF911F910F91B4
:102A80000895EF92FF920F931F93CF93DF93EC0182
:102A90007B010C811D816115710511F480E016C068
:102AA0004115510591F0040F151FB8010E94B7138D
:102AB0008823A1F3288139818C819D81B701820F00
:102AC000931F0E9493201D830C8381E0DF91CF919F
:102AD0001F910F91FF90EF900895FB014481558164
:102AE000608171810C9441156115710559F0FB01EC
:102AF00001900020E9F7AF0141505109461B570BE7
:102B00000C94411580E00895CF93DF9300D0CDB7AA
:102B1000DEB769831A8241E050E0BE016F5F7F4FEC
:102B20000E9441150F900F90DF91CF910895EF9281
:102B3000FF920F931F93CF93DF9300D000D0CDB7B8
:102B4000DEB77C01862F4AE050E08E010F5F1F4FF9
:102B5000B80190E00E94DC20F80101900020E9F724
:102B6000AF0141505109401B510BB801C7010E94F0
:102B700041150F900F900F900F90DF91CF911F9103
:102B80000F91FF90EF900895EF92FF920F931F9394
:102B9000CF93DF93CDB7DEB727970FB6F894DEBF9C
:102BA0000FBECDBF7C01CB014AE050E08E010F5F2C
:102BB0001F4FB8010E94DC20F80101900020E9F7C6
:102BC000AF0141505109401B510BB801C7010E9490
:102BD000411527960FB6F894DEBF0FBECDBFDF912B
:102BE000CF911F910F91FF90EF900895EF92FF9278
:102BF0000F931F93CF93DF9300D000D000D0CDB7B9
:102C0000DEB77C01CB014AE050E08E010F5F1F4F21
:102C1000B8010E946B21F80101900020E9F7AF0193
:102C200041505109401B510BB801C7010E94411589
:102C300026960FB6F894DEBF0FBECDBFDF91CF91C1
:102C40001F910F91FF90EF900895EF92FF920F93D5
:102C50001F93CF93DF93CDB7DEB72C970FB6F894C1
:102C6000DEBF0FBECDBF7C01CB01BA012AE030E050
:102C70008E010F5F1F4FA8010E94FD20F8010190F7
:102C80000020E9F7AF0141505109401B510BB80139
:102C9000C7010E9441152C960FB6F894DEBF0FBEF7
:102CA000CDBFDF91CF911F910F91FF90EF900895CD
:102CB000EF92FF920F931F93CF93DF93CDB7DEB7C1
:102CC0002B970FB6F894DEBF0FBECDBF7C01CB01B2
:102CD000BA012AE030E08E010F5F1F4FA8010E9469
:102CE0004621F80101900020E9F7AF014150510958
:102CF000401B510BB801C7010E9441152B960FB61E
:102D0000F894DEBF0FBECDBFDF91CF911F910F9121
:102D1000FF90EF900895CF93DF93EC01FB01448186
:102D20005581608171810E944115811103C0CE01DE
:102D30000E948B13CE01DF91CF910895CF93DF9343
:102D4000EC016115710569F0FB0101900020E9F7C4
:102D5000AF0141505109461B570B0E94411581118B
:102D600003C0CE010E948B13CE01DF91CF91089555
:102D7000CF93DF93EC010E948415811103C0CE0133
:102D80000E948B13CE01DF91CF910895CF93DF93F3
:102D9000EC010E949715811103C0CE010E948B1394
:102DA000CE01DF91CF910895CF93DF93EC010E9484
:102DB000C415811103C0CE010E948B13CE01DF9197
:102DC000CF910895CF93DF93EC010E94F615811106
:102DD00003C0CE010E948B13CE01DF91CF910895E5
:102DE000CF93DF93EC010E942516811103C0CE0121
:102DF0000E948B13CE01DF91CF910895CF93DF9383
:102E0000EC010E945816811103C0CE010E948B1361
:102E1000CE01DF91CF910895CF93DF93DC01ED9147
:102E2000FC91EB01A881B981309711F01097C9F49A
:102E3000109759F0EB012C813D81232B31F08C91BF
:102E400090E091958195910914C0309781F0DC0153
:102E500014968D919C911597892B49F0808190E073
:102E600008C0BD01CF01DF91CF910C948A2080E092
:102E700090E0DF91CF910895FC0144815581FB01E1
:102E8000248135814217530741F40E940C1721E039
:102E9000892B09F020E0822F089580E00895FC013D
:102EA00024813581232B31F421E061157105A1F0D6
:102EB000FB0108C0FC01808191816115710531F42D
:102EC00021E0FC018081882339F005C00E948A201E
:102ED00021E0892B09F020E0822F08950E940C1731
:102EE000892F881F8827881F08950E940C1721E0CA
:102EF000181619060CF020E0822F08950E940C1776
:102F000021E0181619060CF420E0822F08950E9483
:102F10000C17892F8095881F8827881F0895EF92A6
:102F2000FF920F931F93CF93DF938617970731F18B
:102F3000FC0124813581FB0144815581241735072B
:102F4000F9F4232BD9F0FC0100811181FB01C08130
:102F5000D181F80181918F01882381F0992787FD24
:102F600090950E9454207C018991992787FD909526
:102F70000E945420E816F90661F302C081E001C006
:102F800080E0DF91CF911F910F91FF90EF90089516
:102F9000FA01DB0114964D915C911597DC011496B2
:102FA0002D913C911597241B350B2E173F0788F068
:102FB0008D919C91009769F0DB016D917C91611579
:102FC000710539F08E0F9F1F0E949A2021E0892BF6
:102FD00009F020E0822F0895FC0144815581FB0116
:102FE000248135814217530720F040E050E00C94D3
:102FF000C81780E00895FC0184819581DB01149657
:103000004D915C9115978417950798F02081318137
:103010002115310571F06D917C916115710549F0B3
:10302000841B950B820F931F0E948A2021E0892B1D
:1030300009F020E0822F0895DC0114962D913C9137
:1030400015976217730728F4ED91FC91E60FF71FAF
:1030500040830895FC01848195816817790720F4E5
:1030600080819181009729F41092980288E992E07A
:103070000895860F971F0895FC01248135816217FA
:10308000730748F480819181009729F0FC01E60FD5
:10309000F71F8081089580E008950C943C180F93E9
:1030A0001F93CF93DF93EB0141155105E9F0209772
:1030B000D9F0FC016481758126173707A0F4621BE3
:1030C000730B8A01015011096017710708F48B0115
:1030D000FC0160817181620F731FA801CE010E9403
:1030E000A820C00FD11F1882DF91CF911F910F919F
:1030F0000895CF93DF93FC01848195814817590788
:1031000078F4C081D181772767FD7095CE01840F57
:10311000951F0E947F20009719F08C1B9D0B02C009
:103120008FEF9FEFDF91CF91089540E050E00C9436
:103130007918CF93DF93FC01848195814817590753
:1031400078F4C081D181FB0160817181CE01840F4F
:10315000951F0E94C220009719F08C1B9D0B02C086
:103160008FEF9FEFDF91CF91089540E050E00C94F6
:103170009918DF92EF92FF920F931F93CF93DF93F3
:10318000EC018C819D814817590718F08FEF9FEF54
:103190001BC08A010F5F1F4FE881F981E00FF11F0B
:1031A000D0801082E880F980772767FD7095C7018D
:1031B0000E94B720F701E00FF11FD082009731F392
:1031C00028813981821B930BDF91CF911F910F9141
:1031D000FF90EF90DF900895FC01448155814150AC
:1031E00051090C94B918AF92BF92CF92DF92EF922F
:1031F000FF920F931F93CF93DF937B01EA01FB01B3
:10320000448155814115510569F1FC0124813581C5
:103210002115310539F12417350720F1C217D307DD
:1032200010F0E9012197FC0100811181C801AA2455
:10323000AA94BB24BA946801CC0EDD1EC816D90628
:10324000A0F0F701608171810E94C220009769F0AF
:103250009C01201B310BC217D30708F4950101967E
:103260005901ECCF8FEF9FEF01C0C501DF91CF91E6
:103270001F910F91FF90EF90DF90CF90BF90AF9094
:103280000895FC0144815581FB0124813581421B55
:10329000530B0C94F318BF92CF92DF92EF92FF92F0
:1032A0000F931F93CF93DF936C017B01EA01890198
:1032B0002417350720F48D2FE901042F182F6CE512
:1032C00071E0C6010E94F413D70114968D919C9170
:1032D00015978C179D07C8F08017910708F48C018B
:1032E000D701ED91FC911197E00FF11FB080108292
:1032F0006D917C916C0F7D1FC6010E942C14D7012B
:10330000ED91FC91E00FF11FB082C601DF91CF91EA
:103310001F910F91FF90EF90DF90CF90BF90089595
:10332000CF93DF93EC01FB01248135810E944B197F
:10333000CE01DF91CF910895DC01ED91FC913097A2
:1033400029F40895861301C040833196808181114C
:10335000F9CF08952F923F924F925F926F927F9292
:103360008F929F92AF92BF92CF92DF92EF92FF9295
:103370000F931F93CF93DF93EC015B017A014C8095
:103380005D804114510409F4C5C0FB01648075805F
:103390006114710409F4BEC0FA01C480D580C61856
:1033A000D70808811981C114D104C1F4F5016081E5
:1033B0007181C8010E94C220EC01009709F4AAC0E3
:1033C000F7016081718144815581CE010E946420A2
:1033D000F701048115810C0F1D1FE8CFD7FC05C034
:1033E000FB0120803180420143C04801F50160812A
:1033F0007181C8010E94C2202C01009719F132018D
:10340000601A710AA301B801C4010E946420680C0B
:10341000791CF7016081718144815581C3010E944B
:103420006420F70184809580860C971CF501048147
:103430001581040D151D8C819D818C0D9D1D9D8315
:103440008C83D4CFB801C401DF91CF911F910F912C
:10345000FF90EF90DF90CF90BF90AF909F908F90B4
:103460007F906F905F904F903F902F900C9493209F
:10347000B101C8010E94C220009731F08C01060DF5
:10348000171D8C0C9D1CF4CF8414950409F442C0C4
:103490008A819B818815990530F4B401CE010E9480
:1034A0009D138823B9F14C815D814150510957FD2D
:1034B00031C0B501CE010E94F3188C0197FD2AC0DE
:1034C00088819981F50124813581200F311F820F78
:1034D000931F4C815D81421B530BBC018C0D9D1DC4
:1034E0000E946D208C819D818C0D9D1D9D838C8300
:1034F000E881F981E80FF91F108288819981F7012D
:103500006081718144815581800F911F0E946420E8
:10351000A801CBCFDF91CF911F910F91FF90EF903A
:10352000DF90CF90BF90AF909F908F907F906F90E3
:103530005F904F903F902F900895CF93DF93FC01C1
:10354000C081D181209751F08881882339F0992753
:1035500087FD90950E9454208993F6CFDF91CF91FB
:103560000895CF93DF93FC01C081D181209751F062
:103570008881882339F0992787FD90950E945C20E7
:103580008993F6CFDF91CF910895AF92BF92CF92FA
:10359000DF92EF92FF920F931F93CF93DF937C0103
:1035A000DC01CD90DC901197C114D10409F441C025
:1035B0001496CD91DC9115972097D9F1560185018C
:1035C000BFEFAB1ABB0AF8018081992787FD909560
:1035D0000E944C20892B99F72197CC0DDD1D888105
:1035E000992787FD90950E944C20892B91F4AE017C
:1035F0004F5F5F4F401B510BD70115965C934E9365
:103600001497C016D10650F4B801C6010E94642078
:1036100005C0C017D10758F32197E1CFD701ED912D
:10362000FC91119714968D919C911597E80FF91FB5
:103630001082DF91CF911F910F91FF90EF90DF905B
:10364000CF90BF90AF900895FC0180819181009749
:1036500011F00C94252060E070E0CB0108950E94E9
:1036600075018CB58F7B8CBD89E891E00E94C50502
:10367000CFE5DDE00E948D002097E1F30E945F0D11
:10368000F9CF0895089508958F929F92AF92BF92B7
:10369000CF92DF92EF92FF920F931F9381E08F936F
:1036A00085E08F9387E08F9383E08F9384E08F93FF
:1036B00086EC882E912C92ECA92EB12C21ECC22EF6
:1036C000D12C30ECE32EF12C04EC10E025EC30E0B2
:1036D00048EF51E061E472E089E891E00E94600DFA
:1036E0008BE091E090938A01809389018FEA91E0C9
:1036F0009093AC018093AB0183E992E09093AE018B
:103700008093AD01109293020F900F900F900F9045
:103710000F901F910F91FF90EF90DF90CF90BF908F
:10372000AF909F908F9008951F93CF93DF93EC01FC
:10373000162F83E8860F833030F46DE7CE010E94A8
:103740001E0D60E26127CE01DF91CF911F910C9495
:103750001E0D6115710581F0DB010D900020E9F768
:10376000AD0141505109461B570BDC01ED91FC9115
:103770000280F381E02D099480E090E00895505894
:10378000BB27AA270ED075C166D130F06BD120F0CF
:1037900031F49F3F11F41EF45BC10EF4E095E7FB9A
:1037A00051C1E92F77D180F3BA17620773078407F5
:1037B000950718F071F49EF58FC10EF4E0950B2E6D
:1037C000BA2FA02D0B01B90190010C01CA01A00173
:1037D0001124FF27591B99F0593F50F4503E68F1CE
:1037E0001A16F040A22F232F342F4427585FF3CF0F
:1037F000469537952795A795F0405395C9F77EF4E0
:103800001F16BA0B620B730B840BBAF09150A1F028
:10381000FF0FBB1F661F771F881FC2F70EC0BA0FAE
:10382000621F731F841F48F4879577956795B79536
:10383000F7959E3F08F0B3CF9395880F08F099272E
:10384000EE0F979587950895D9D008F481E00895F3
:103850000CD00FC107D140F0FED030F021F45F3F13
:1038600019F0F0C0511139C1F3C014D198F3992364
:10387000C9F35523B1F3951B550BBB27AA27621734
:103880007307840738F09F5F5F4F220F331F441F79
:10389000AA1FA9F333D00E2E3AF0E0E830D09150B1
:1038A0005040E695001CCAF729D0FE2F27D0660F9E
:1038B000771F881FBB1F261737074807AB07B0E8DD
:1038C00009F0BB0B802DBF01FF2793585F4F2AF0F3
:1038D0009E3F510568F0B6C000C15F3FECF3983ED3
:1038E000DCF3869577956795B795F7959F5FC9F750
:1038F000880F911D9695879597F90895E1E0660FD9
:10390000771F881FBB1F621773078407BA0720F051
:10391000621B730B840BBA0BEE1F88F7E0950895BA
:1039200004D06894B111D9C00895BCD088F09F57D5
:1039300090F0B92F9927B751A0F0D1F0660F771FFB
:10394000881F991F1AF0BA95C9F712C0B13081F0DB
:10395000C3D0B1E00895C0C0672F782F8827B85F23
:1039600039F0B93FCCF3869577956795B395D9F73C
:103970003EF490958095709561957F4F8F4F9F4F46
:103980000895E89409C097FB3EF490958095709552
:1039900061957F4F8F4F9F4F9923A9F0F92F96E99B
:1039A000BB279395F695879577956795B795F11110
:1039B000F8CFFAF4BB0F11F460FF1BC06F5F7F4FAD
:1039C0008F4F9F4F16C0882311F096E911C07723BF
:1039D00021F09EE8872F762F05C0662371F096E8C8
:1039E000862F70E060E02AF09A95660F771F881F97
:1039F000DAF7880F9695879597F90895990F00083B
:103A0000550FAA0BE0E8FEEF16161706E807F907B0
:103A1000C0F012161306E407F50798F0621B730B4B
:103A2000840B950B39F40A2661F0232B242B252BCC
:103A300021F408950A2609F4A140A6958FEF811D6F
:103A4000811D089597F99F6780E870E060E0089510
:103A50009FEF80EC089500240A94161617061806A6
:103A60000906089500240A94121613061406050682
:103A70000895092E0394000C11F4882352F0BB0F13
:103A800040F4BF2B11F460FF04C06F5F7F4F8F4F76
:103A90009F4F089557FD9058440F551F59F05F3FB1
:103AA00071F04795880F97FB991F61F09F3F79F060
:103AB00087950895121613061406551FF2CF4695E2
:103AC000F1DF08C0161617061806991FF1CF869564
:103AD0007105610508940895E894BB276627772748
:103AE000CB0197F908958ADF08F48FEF08950BD082
:103AF000C0CFB1DF28F0B6DF18F0952309F0A2CFD0
:103B0000A7CF1124EACFC6DFA0F3959FD1F3950F7D
:103B100050E0551F629FF001729FBB27F00DB11D51
:103B2000639FAA27F00DB11DAA1F649F6627B00DE1
:103B3000A11D661F829F2227B00DA11D621F739FCA
:103B4000B00DA11D621F839FA00D611D221F749FD8
:103B50003327A00D611D231F849F600D211D822F1F
:103B6000762F6A2F11249F5750408AF0E1F0882366
:103B70004AF0EE0FFF1FBB1F661F771F881F915073
:103B80005040A9F79E3F510570F05CCFA6CF5F3F34
:103B9000ECF3983EDCF3869577956795B795F795A6
:103BA000E7959F5FC1F7FE2B880F911D969587952E
:103BB00097F9089523DF880B990B0895A29FB00110
:103BC000B39FC001A39F700D811D1124911DB29F51
:103BD000700D811D1124911D08950E94DE1DA59F69
:103BE000900DB49F900DA49F800D911D11240895F8
:103BF000AA1BBB1B51E107C0AA1FBB1FA617B70713
:103C000010F0A61BB70B881F991F5A95A9F780952E
:103C10009095BC01CD010895A1E21A2EAA1BBB1BF1
:103C2000FD010DC0AA1FBB1FEE1FFF1FA217B30788
:103C3000E407F50720F0A21BB30BE40BF50B661F9E
:103C4000771F881F991F1A9469F760957095809562
:103C500090959B01AC01BD01CF010895EE0FFF1FB0
:103C60000590F491E02D0994CF93DF938230910574
:103C700010F482E090E0E0919B02F0919C0220E041
:103C800030E0A0E0B0E0309739F140815181481731
:103C90005907B8F04817590771F48281938110973A
:103CA00029F013969C938E9312972CC090939C02AC
:103CB00080939B0227C02115310531F0421753072D
:103CC00018F0A901DB0101C0EF019A01BD01DF017C
:103CD0000280F381E02DD7CF21153105F9F0281BA3
:103CE000390B2430310580F48A819B81611571057F
:103CF00021F0FB019383828304C090939C02809304
:103D00009B02FE01329644C0FE01E20FF31F819335
:103D1000919322503109398328833AC02091990226
:103D200030919A02232B41F4209103013091040138
:103D300030939A022093990220910101309102015F
:103D40002115310541F42DB73EB740910501509141
:103D50000601241B350BE0919902F0919A02E217BB
:103D6000F307A0F42E1B3F0B2817390778F0AC019E
:103D70004E5F5F4F2417350748F04E0F5F1F50937B
:103D80009A02409399028193919302C0E0E0F0E09F
:103D9000CF01DF91CF910895CF93DF93009709F47E
:103DA00087C0FC01329713821282C0919B02D0918E
:103DB0009C02209781F420813181280F391F809146
:103DC000990290919A028217930779F5F0939A02DB
:103DD000E09399026DC0DE0120E030E0AE17BF072E
:103DE00050F412964D915C9113979D014115510528
:103DF00009F1DA01F3CFB383A28340815181840FAB
:103E0000951F8A179B0771F48D919C911197840FD0
:103E1000951F02969183808312968D919C911397A2
:103E2000938382832115310529F4F0939C02E0935A
:103E30009B023EC0D9011396FC93EE9312974D91CD
:103E40005D91A40FB51FEA17FB0779F4808191817A
:103E5000840F951F0296D90111969C938E938281AF
:103E6000938113969C938E931297E0E0F0E08A8101
:103E70009B81009719F0FE01EC01F9CFCE0102966B
:103E800028813981820F931F2091990230919A02E3
:103E90002817390769F4309729F410929C02109280
:103EA0009B0202C013821282D0939A02C09399029D
:103EB000DF91CF910895A0E0B0E0E1E6FFE10C943E
:103EC0009821EC01CB01209719F40E94341EB8C050
:103ED000FE01E60FF71F9E0122503109E217F3079A
:103EE00008F4ACC0D9010D911C9111970617170762
:103EF000B8F00530110508F49FC0A80144505109DD
:103F00004617570708F498C002501109061B170BF3
:103F1000019311936D937C93CF010E94CC1E8CC0B2
:103F20005B01A01AB10A4E01800E911EA0919B0266
:103F3000B0919C02612C712C60E070E0109709F444
:103F400049C0A815B905C9F5ED90FC901197670116
:103F500042E0C40ED11CCA14DB0478F147018A1870
:103F60009B08640142E0C40ED11C1296BC901297CB
:103F70001396AC91B5E0CB16D10440F0B282A38386
:103F800091828082D9018D939C9309C00E5F1F4F4F
:103F90000E0D1F1DF90111830083EB2DFA2F611502
:103FA000710531F0DB011396FC93EE93129744C038
:103FB000F0939C02E0939B023FC06D917C9111971E
:103FC0006616770608F43B01BD0112960D90BC9170
:103FD000A02DB4CF6091990270919A02681579056D
:103FE000E9F468167906D0F440910101509102017C
:103FF0004115510541F44DB75EB7609105017091CF
:104000000601461B570BE417F507C0F4F0939A021C
:10401000E0939902F901918380830EC00E94341EBF
:104020007C01009759F0A801BE010E946420CE01D6
:104030000E94CC1EC70104C0CE0102C080E090E007
:10404000CDB7DEB7EEE00C94B4211F93FC019927A5
:104050008827BC01E89411911032E9F3193010F06F
:104060001E30C8F31B3251F01D3249F4689406C06B
:104070000E943121610F711D811D911D11911053FD
:104080001A30B0F33EF490958095709561957F4F0E
:104090008F4F9F4F1F910895911133C1803219F0B6
:1040A00089508550D0F708959111089581548A510F
:1040B00008F4805E855A08959111089581568A51B9
:1040C00008F4805285580895FB01DC0102C001907C
:1040D0000D9241505040D8F708956817790768F459
:1040E000FB01DC01E40FF51FA40FB51F02C0029015
:1040F0000E9241505040D8F708950C946420FC0172
:104100008191861721F08823D9F79927089531974F
:10411000CF010895FB01DC018D9101908019011000
:10412000D9F3990B0895FB01DC0101900D92002059
:10413000E1F70895FB01DC014150504030F08D91D2
:104140000190801919F40020B9F7881B990B089584
:10415000FB01DC014150504048F001900D920020DD
:10416000C9F701C01D9241505040E0F70895FC018D
:1041700081E090E00190061609F4CF010020D1F70C
:1041800001970895FB0151915523A9F0BF01DC016E
:104190004D9145174111E1F759F4CD0101900020EF
:1041A00049F04D9140154111C9F3FB014111EFCF89
:1041B00081E090E001970895FB019F01E89442306F
:1041C000C4F04532B4F44A3029F497FB1EF49095BC
:1041D00081959F4F642F77270E94F81D805D8A3359
:1041E0000CF0895D8193CB010097A1F716F45DE295
:1041F00051931082C9010C948421FA01CF93FF934B
:10420000EF93223044F1253234F5C22FE894CA30BE
:1042100049F497FB3EF490958095709561957F4F9A
:104220008F4F9F4F2C2F332744275527FF93EF9312
:104230000E940C1EEF91FF91605D6A330CF0695D86
:104240006193B901CA01605070408040904051F7BD
:1042500016F4CDE2C19310828F919F91CF910C946F
:104260008421592F482F372F262F660F771F881F3D
:10427000991F660F771F881F991F620F731F841F76
:10428000951F660F771F881F991F0895FA01CF9316
:10429000FF93EF932230CCF02532BCF4C22F2C2FA9
:1042A000332744275527FF93EF930E940C1EEF916D
:1042B000FF91605D6A330CF0695D6193B901CA01D9
:1042C000605070408040904051F710828F919F91D4
:1042D000CF910C948421FB019F01423074F0453250
:1042E00064F4642F77270E94F81D805D8A330CF0F8
:1042F000895D8193CB010097A1F71082C9010C94CD
:104300008421992788270895DC01FC01672F71918A
:104310007723E1F7329704C07C916D9370836291AB
:10432000AE17BF07C8F308952F923F924F925F9246
:104330006F927F928F929F92AF92BF92CF92DF92B5
:10434000EF92FF920F931F93CF93DF93CDB7DEB71A
:10435000CA1BDB0B0FB6F894DEBF0FBECDBF0994AE
:104360002A88398848885F846E847D848C849B8405
:10437000AA84B984C884DF80EE80FD800C811B8113
:10438000AA81B981CE0FD11D0FB6F894DEBF0FBE42
:0A439000CDBFED010895F894FFCFB2
:10439A000100009D0220000000000067097C09CA94
:1043AA00091404BE0CEF0CD40C0D04411B421B4330
:1043BA001B00000000C900A60DCE0DF30DC900C9EF
:1043CA0000C900C900000000001E0DA60DCE0DF3A5
:1043DA000DBE0CEF0CD40C130D6C0BE70B670C6EB7
:1043EA00616E00696E66006F7666002E000000003E
:0A43FA0000C900A60DCE0DF30D0062
:00000001FF
